{
  "address": "0xC6BAE150cafb472C7cBE2f577aD2c32aA749D26F",
  "abi": [
    {
      "inputs": [
        {
          "internalType": "contract TransferProxy",
          "name": "_transferProxy",
          "type": "address"
        },
        {
          "internalType": "contract TransferProxyForDeprecated",
          "name": "_transferProxyForDeprecated",
          "type": "address"
        },
        {
          "internalType": "contract ERC20TransferProxy",
          "name": "_erc20TransferProxy",
          "type": "address"
        },
        {
          "internalType": "contract ExchangeStateV1",
          "name": "_state",
          "type": "address"
        },
        {
          "internalType": "contract ExchangeOrdersHolderV1",
          "name": "_ordersHolder",
          "type": "address"
        },
        {
          "internalType": "address payable",
          "name": "_beneficiary",
          "type": "address"
        },
        {
          "internalType": "address",
          "name": "_buyerFeeSigner",
          "type": "address"
        }
      ],
      "stateMutability": "nonpayable",
      "type": "constructor"
    },
    {
      "anonymous": false,
      "inputs": [
        {
          "indexed": true,
          "internalType": "address",
          "name": "sellToken",
          "type": "address"
        },
        {
          "indexed": true,
          "internalType": "uint256",
          "name": "sellTokenId",
          "type": "uint256"
        },
        {
          "indexed": false,
          "internalType": "uint256",
          "name": "sellValue",
          "type": "uint256"
        },
        {
          "indexed": false,
          "internalType": "address",
          "name": "owner",
          "type": "address"
        },
        {
          "indexed": false,
          "internalType": "address",
          "name": "buyToken",
          "type": "address"
        },
        {
          "indexed": false,
          "internalType": "uint256",
          "name": "buyTokenId",
          "type": "uint256"
        },
        {
          "indexed": false,
          "internalType": "uint256",
          "name": "buyValue",
          "type": "uint256"
        },
        {
          "indexed": false,
          "internalType": "address",
          "name": "buyer",
          "type": "address"
        },
        {
          "indexed": false,
          "internalType": "uint256",
          "name": "amount",
          "type": "uint256"
        },
        {
          "indexed": false,
          "internalType": "uint256",
          "name": "salt",
          "type": "uint256"
        }
      ],
      "name": "Buy",
      "type": "event"
    },
    {
      "anonymous": false,
      "inputs": [
        {
          "indexed": true,
          "internalType": "address",
          "name": "sellToken",
          "type": "address"
        },
        {
          "indexed": true,
          "internalType": "uint256",
          "name": "sellTokenId",
          "type": "uint256"
        },
        {
          "indexed": false,
          "internalType": "address",
          "name": "owner",
          "type": "address"
        },
        {
          "indexed": false,
          "internalType": "address",
          "name": "buyToken",
          "type": "address"
        },
        {
          "indexed": false,
          "internalType": "uint256",
          "name": "buyTokenId",
          "type": "uint256"
        },
        {
          "indexed": false,
          "internalType": "uint256",
          "name": "salt",
          "type": "uint256"
        }
      ],
      "name": "Cancel",
      "type": "event"
    },
    {
      "anonymous": false,
      "inputs": [
        {
          "indexed": true,
          "internalType": "address",
          "name": "previousOwner",
          "type": "address"
        },
        {
          "indexed": true,
          "internalType": "address",
          "name": "newOwner",
          "type": "address"
        }
      ],
      "name": "OwnershipTransferred",
      "type": "event"
    },
    {
      "inputs": [],
      "name": "beneficiary",
      "outputs": [
        {
          "internalType": "address payable",
          "name": "",
          "type": "address"
        }
      ],
      "stateMutability": "view",
      "type": "function"
    },
    {
      "inputs": [],
      "name": "buyerFeeSigner",
      "outputs": [
        {
          "internalType": "address",
          "name": "",
          "type": "address"
        }
      ],
      "stateMutability": "view",
      "type": "function"
    },
    {
      "inputs": [
        {
          "components": [
            {
              "internalType": "address",
              "name": "owner",
              "type": "address"
            },
            {
              "internalType": "uint256",
              "name": "salt",
              "type": "uint256"
            },
            {
              "components": [
                {
                  "internalType": "address",
                  "name": "token",
                  "type": "address"
                },
                {
                  "internalType": "uint256",
                  "name": "tokenId",
                  "type": "uint256"
                },
                {
                  "internalType": "enum ExchangeDomainV1.AssetType",
                  "name": "assetType",
                  "type": "uint8"
                }
              ],
              "internalType": "struct ExchangeDomainV1.Asset",
              "name": "sellAsset",
              "type": "tuple"
            },
            {
              "components": [
                {
                  "internalType": "address",
                  "name": "token",
                  "type": "address"
                },
                {
                  "internalType": "uint256",
                  "name": "tokenId",
                  "type": "uint256"
                },
                {
                  "internalType": "enum ExchangeDomainV1.AssetType",
                  "name": "assetType",
                  "type": "uint8"
                }
              ],
              "internalType": "struct ExchangeDomainV1.Asset",
              "name": "buyAsset",
              "type": "tuple"
            }
          ],
          "internalType": "struct ExchangeDomainV1.OrderKey",
          "name": "key",
          "type": "tuple"
        }
      ],
      "name": "cancel",
      "outputs": [],
      "stateMutability": "nonpayable",
      "type": "function"
    },
    {
      "inputs": [],
      "name": "erc20TransferProxy",
      "outputs": [
        {
          "internalType": "contract ERC20TransferProxy",
          "name": "",
          "type": "address"
        }
      ],
      "stateMutability": "view",
      "type": "function"
    },
    {
      "inputs": [
        {
          "components": [
            {
              "components": [
                {
                  "internalType": "address",
                  "name": "owner",
                  "type": "address"
                },
                {
                  "internalType": "uint256",
                  "name": "salt",
                  "type": "uint256"
                },
                {
                  "components": [
                    {
                      "internalType": "address",
                      "name": "token",
                      "type": "address"
                    },
                    {
                      "internalType": "uint256",
                      "name": "tokenId",
                      "type": "uint256"
                    },
                    {
                      "internalType": "enum ExchangeDomainV1.AssetType",
                      "name": "assetType",
                      "type": "uint8"
                    }
                  ],
                  "internalType": "struct ExchangeDomainV1.Asset",
                  "name": "sellAsset",
                  "type": "tuple"
                },
                {
                  "components": [
                    {
                      "internalType": "address",
                      "name": "token",
                      "type": "address"
                    },
                    {
                      "internalType": "uint256",
                      "name": "tokenId",
                      "type": "uint256"
                    },
                    {
                      "internalType": "enum ExchangeDomainV1.AssetType",
                      "name": "assetType",
                      "type": "uint8"
                    }
                  ],
                  "internalType": "struct ExchangeDomainV1.Asset",
                  "name": "buyAsset",
                  "type": "tuple"
                }
              ],
              "internalType": "struct ExchangeDomainV1.OrderKey",
              "name": "key",
              "type": "tuple"
            },
            {
              "internalType": "uint256",
              "name": "selling",
              "type": "uint256"
            },
            {
              "internalType": "uint256",
              "name": "buying",
              "type": "uint256"
            },
            {
              "internalType": "uint256",
              "name": "sellerFee",
              "type": "uint256"
            }
          ],
          "internalType": "struct ExchangeDomainV1.Order",
          "name": "order",
          "type": "tuple"
        },
        {
          "components": [
            {
              "internalType": "uint8",
              "name": "v",
              "type": "uint8"
            },
            {
              "internalType": "bytes32",
              "name": "r",
              "type": "bytes32"
            },
            {
              "internalType": "bytes32",
              "name": "s",
              "type": "bytes32"
            }
          ],
          "internalType": "struct ExchangeDomainV1.Sig",
          "name": "sig",
          "type": "tuple"
        },
        {
          "internalType": "uint256",
          "name": "buyerFee",
          "type": "uint256"
        },
        {
          "components": [
            {
              "internalType": "uint8",
              "name": "v",
              "type": "uint8"
            },
            {
              "internalType": "bytes32",
              "name": "r",
              "type": "bytes32"
            },
            {
              "internalType": "bytes32",
              "name": "s",
              "type": "bytes32"
            }
          ],
          "internalType": "struct ExchangeDomainV1.Sig",
          "name": "buyerFeeSig",
          "type": "tuple"
        },
        {
          "internalType": "uint256",
          "name": "amount",
          "type": "uint256"
        },
        {
          "internalType": "address",
          "name": "buyer",
          "type": "address"
        }
      ],
      "name": "exchange",
      "outputs": [],
      "stateMutability": "payable",
      "type": "function"
    },
    {
      "inputs": [],
      "name": "ordersHolder",
      "outputs": [
        {
          "internalType": "contract ExchangeOrdersHolderV1",
          "name": "",
          "type": "address"
        }
      ],
      "stateMutability": "view",
      "type": "function"
    },
    {
      "inputs": [],
      "name": "owner",
      "outputs": [
        {
          "internalType": "address",
          "name": "",
          "type": "address"
        }
      ],
      "stateMutability": "view",
      "type": "function"
    },
    {
      "inputs": [
        {
          "components": [
            {
              "components": [
                {
                  "internalType": "address",
                  "name": "owner",
                  "type": "address"
                },
                {
                  "internalType": "uint256",
                  "name": "salt",
                  "type": "uint256"
                },
                {
                  "components": [
                    {
                      "internalType": "address",
                      "name": "token",
                      "type": "address"
                    },
                    {
                      "internalType": "uint256",
                      "name": "tokenId",
                      "type": "uint256"
                    },
                    {
                      "internalType": "enum ExchangeDomainV1.AssetType",
                      "name": "assetType",
                      "type": "uint8"
                    }
                  ],
                  "internalType": "struct ExchangeDomainV1.Asset",
                  "name": "sellAsset",
                  "type": "tuple"
                },
                {
                  "components": [
                    {
                      "internalType": "address",
                      "name": "token",
                      "type": "address"
                    },
                    {
                      "internalType": "uint256",
                      "name": "tokenId",
                      "type": "uint256"
                    },
                    {
                      "internalType": "enum ExchangeDomainV1.AssetType",
                      "name": "assetType",
                      "type": "uint8"
                    }
                  ],
                  "internalType": "struct ExchangeDomainV1.Asset",
                  "name": "buyAsset",
                  "type": "tuple"
                }
              ],
              "internalType": "struct ExchangeDomainV1.OrderKey",
              "name": "key",
              "type": "tuple"
            },
            {
              "internalType": "uint256",
              "name": "selling",
              "type": "uint256"
            },
            {
              "internalType": "uint256",
              "name": "buying",
              "type": "uint256"
            },
            {
              "internalType": "uint256",
              "name": "sellerFee",
              "type": "uint256"
            }
          ],
          "internalType": "struct ExchangeDomainV1.Order",
          "name": "order",
          "type": "tuple"
        },
        {
          "internalType": "uint256",
          "name": "fee",
          "type": "uint256"
        }
      ],
      "name": "prepareBuyerFeeMessage",
      "outputs": [
        {
          "internalType": "string",
          "name": "",
          "type": "string"
        }
      ],
      "stateMutability": "pure",
      "type": "function"
    },
    {
      "inputs": [
        {
          "components": [
            {
              "components": [
                {
                  "internalType": "address",
                  "name": "owner",
                  "type": "address"
                },
                {
                  "internalType": "uint256",
                  "name": "salt",
                  "type": "uint256"
                },
                {
                  "components": [
                    {
                      "internalType": "address",
                      "name": "token",
                      "type": "address"
                    },
                    {
                      "internalType": "uint256",
                      "name": "tokenId",
                      "type": "uint256"
                    },
                    {
                      "internalType": "enum ExchangeDomainV1.AssetType",
                      "name": "assetType",
                      "type": "uint8"
                    }
                  ],
                  "internalType": "struct ExchangeDomainV1.Asset",
                  "name": "sellAsset",
                  "type": "tuple"
                },
                {
                  "components": [
                    {
                      "internalType": "address",
                      "name": "token",
                      "type": "address"
                    },
                    {
                      "internalType": "uint256",
                      "name": "tokenId",
                      "type": "uint256"
                    },
                    {
                      "internalType": "enum ExchangeDomainV1.AssetType",
                      "name": "assetType",
                      "type": "uint8"
                    }
                  ],
                  "internalType": "struct ExchangeDomainV1.Asset",
                  "name": "buyAsset",
                  "type": "tuple"
                }
              ],
              "internalType": "struct ExchangeDomainV1.OrderKey",
              "name": "key",
              "type": "tuple"
            },
            {
              "internalType": "uint256",
              "name": "selling",
              "type": "uint256"
            },
            {
              "internalType": "uint256",
              "name": "buying",
              "type": "uint256"
            },
            {
              "internalType": "uint256",
              "name": "sellerFee",
              "type": "uint256"
            }
          ],
          "internalType": "struct ExchangeDomainV1.Order",
          "name": "order",
          "type": "tuple"
        }
      ],
      "name": "prepareMessage",
      "outputs": [
        {
          "internalType": "string",
          "name": "",
          "type": "string"
        }
      ],
      "stateMutability": "pure",
      "type": "function"
    },
    {
      "inputs": [],
      "name": "renounceOwnership",
      "outputs": [],
      "stateMutability": "nonpayable",
      "type": "function"
    },
    {
      "inputs": [
        {
          "internalType": "address payable",
          "name": "newBeneficiary",
          "type": "address"
        }
      ],
      "name": "setBeneficiary",
      "outputs": [],
      "stateMutability": "nonpayable",
      "type": "function"
    },
    {
      "inputs": [
        {
          "internalType": "address",
          "name": "newBuyerFeeSigner",
          "type": "address"
        }
      ],
      "name": "setBuyerFeeSigner",
      "outputs": [],
      "stateMutability": "nonpayable",
      "type": "function"
    },
    {
      "inputs": [],
      "name": "state",
      "outputs": [
        {
          "internalType": "contract ExchangeStateV1",
          "name": "",
          "type": "address"
        }
      ],
      "stateMutability": "view",
      "type": "function"
    },
    {
      "inputs": [
        {
          "internalType": "address",
          "name": "newOwner",
          "type": "address"
        }
      ],
      "name": "transferOwnership",
      "outputs": [],
      "stateMutability": "nonpayable",
      "type": "function"
    },
    {
      "inputs": [],
      "name": "transferProxy",
      "outputs": [
        {
          "internalType": "contract TransferProxy",
          "name": "",
          "type": "address"
        }
      ],
      "stateMutability": "view",
      "type": "function"
    },
    {
      "inputs": [],
      "name": "transferProxyForDeprecated",
      "outputs": [
        {
          "internalType": "contract TransferProxyForDeprecated",
          "name": "",
          "type": "address"
        }
      ],
      "stateMutability": "view",
      "type": "function"
    }
  ],
  "transactionHash": "0xb0e867e182bb6eb8891b540a953da68c15ad5eba89bf1d1e552746b82259bb79",
  "args": [
    "0x1ff9d91B940d552acE0f1a7A6e3c1c04b87B725d",
    "0xD103716753aBe5c51a95Abb4C30fF426a16A5224",
    "0x03252f5C04f9b4Bc55A9994CbE8Eff5BA8041dF2",
    "0x44C6351144E34D1A0A527bf5e2c23bf13F9Cf534",
    "0x8e81E2f40ff2C88676C157308a4a26EDf00D1f92",
    "0x8D5BE0CF7a4FA0680AFF798516c259AC0eE57334",
    "0x8D5BE0CF7a4FA0680AFF798516c259AC0eE57334"
  ],
  "solcInputHash": "1d744ab9c9d10f5943f429fe3641b18d",
  "bytecode": "0x60806040523480156200001157600080fd5b506040516200261a3803806200261a833981016040819052620000349162000110565b6000620000406200010c565b600080546001600160a01b0319166001600160a01b0383169081178255604051929350917f8be0079c531659141344cd1fd0a4f28419497f9722a3daafe3b4186f6b6457e0908290a350600380546001600160a01b03199081166001600160a01b03998a1617909155600480548216978916979097179096556005805487169588169590951790945560068054861693871693909317909255600780548516918616919091179055600180548416918516919091179055600280549092169216919091179055620001d3565b3390565b600080600080600080600060e0888a0312156200012b578283fd5b87516200013881620001ba565b60208901519097506200014b81620001ba565b60408901519096506200015e81620001ba565b60608901519095506200017181620001ba565b60808901519094506200018481620001ba565b60a08901519093506200019781620001ba565b60c0890151909250620001aa81620001ba565b8091505092959891949750929550565b6001600160a01b0381168114620001d057600080fd5b50565b61243780620001e36000396000f3fe6080604052600436106100f35760003560e01c8063715018a61161008a578063c19d93fb11610059578063c19d93fb14610243578063ca120b1f14610258578063f2fde38b14610278578063fee03e9e14610298576100f3565b8063715018a6146101f15780638da5cb5b146102065780639704dc441461021b5780639cec639214610230576100f3565b806338af3eed116100c657806338af3eed146101925780634df97bc5146101a757806355d5d326146101bc5780636e667db3146101dc576100f3565b806302329e10146100f8578063049944b6146101235780631b4c9874146101505780631c31f71014610170575b600080fd5b34801561010457600080fd5b5061010d6102ad565b60405161011a9190611fa1565b60405180910390f35b34801561012f57600080fd5b5061014361013e366004611e07565b6102bc565b60405161011a9190612078565b34801561015c57600080fd5b5061014361016b366004611e23565b6102f5565b34801561017c57600080fd5b5061019061018b366004611bcd565b610316565b005b34801561019e57600080fd5b5061010d6103ac565b3480156101b357600080fd5b5061010d6103bb565b3480156101c857600080fd5b506101906101d7366004611bcd565b6103ca565b3480156101e857600080fd5b5061010d610460565b3480156101fd57600080fd5b5061019061046f565b34801561021257600080fd5b5061010d61052d565b34801561022757600080fd5b5061010d61053c565b61019061023e366004611d8e565b61054b565b34801561024f57600080fd5b5061010d610753565b34801561026457600080fd5b50610190610273366004611d60565b610762565b34801561028457600080fd5b50610190610293366004611bcd565b610870565b3480156102a457600080fd5b5061010d610984565b6004546001600160a01b031681565b60606102ed826040516020016102d2919061230d565b60405160208183030381529060405280519060200120610993565b90505b919050565b606061030d83836040516020016102d292919061231c565b90505b92915050565b61031e610ab4565b6001600160a01b031661032f61052d565b6001600160a01b03161461038a576040805162461bcd60e51b815260206004820181905260248201527f4f776e61626c653a2063616c6c6572206973206e6f7420746865206f776e6572604482015290519081900360640190fd5b600180546001600160a01b0319166001600160a01b0392909216919091179055565b6001546001600160a01b031681565b6002546001600160a01b031681565b6103d2610ab4565b6001600160a01b03166103e361052d565b6001600160a01b03161461043e576040805162461bcd60e51b815260206004820181905260248201527f4f776e61626c653a2063616c6c6572206973206e6f7420746865206f776e6572604482015290519081900360640190fd5b600280546001600160a01b0319166001600160a01b0392909216919091179055565b6003546001600160a01b031681565b610477610ab4565b6001600160a01b031661048861052d565b6001600160a01b0316146104e3576040805162461bcd60e51b815260206004820181905260248201527f4f776e61626c653a2063616c6c6572206973206e6f7420746865206f776e6572604482015290519081900360640190fd5b600080546040516001600160a01b03909116907f8be0079c531659141344cd1fd0a4f28419497f9722a3daafe3b4186f6b6457e0908390a3600080546001600160a01b0319169055565b6000546001600160a01b031690565b6007546001600160a01b031681565b61057161055d36889003880188611e07565b61056c36889003880188611e4f565b610ab8565b61059861058336889003880188611e07565b8561059336879003870187611e4f565b610bdf565b60006105b86101008801356105b26101208a013586610c35565b90610c8e565b90506105d86105cc36899003890189611d72565b88610100013585610cf5565b60016105ea60a0890160808a01611d2b565b60058111156105f557fe5b141561061c5760405162461bcd60e51b8152600401610613906121b4565b60405180910390fd5b600161062f610100890160e08a01611d2b565b600581111561063a57fe5b141561064a5761064a8186610e11565b600061067561065f60a08a0160808b01611d2b565b6106706101008b0160e08c01611d2b565b610e40565b90506001600160a01b038316610689573392505b6106df61069e368a90038a0160408b01611d45565b856106ac60208c018c611bcd565b8660018660028111156106bb57fe5b148b8e61014001358f60000160a0018036038101906106da9190611d45565b610ecf565b6107306106f4368a90038a0160a08b01611d45565b833361070360208d018d611bcd565b600286600281111561071157fe5b148d61014001358c8f6000016040018036038101906106da9190611d45565b610749610742368a90038a018a611e07565b8585610ef4565b5050505050505050565b6006546001600160a01b031681565b336107706020830183611bcd565b6001600160a01b0316146107965760405162461bcd60e51b8152600401610613906121f5565b600654604051631d03b74d60e11b81526001600160a01b0390911690633a076e9a906107ca9084906000199060040161229a565b600060405180830381600087803b1580156107e457600080fd5b505af11580156107f8573d6000803e3d6000fd5b50505060608201803591506108109060408401611bcd565b6001600160a01b03167fbfe0e802e586c99960de1a111c80f598b281996d65080d74dbe29986f55b274a3361084b60c0860160a08701611bcd565b60405161086592919060c088013590602089013590611fb5565b60405180910390a350565b610878610ab4565b6001600160a01b031661088961052d565b6001600160a01b0316146108e4576040805162461bcd60e51b815260206004820181905260248201527f4f776e61626c653a2063616c6c6572206973206e6f7420746865206f776e6572604482015290519081900360640190fd5b6001600160a01b0381166109295760405162461bcd60e51b81526004018080602001828103825260268152602001806123e46026913960400191505060405180910390fd5b600080546040516001600160a01b03808516939216917f8be0079c531659141344cd1fd0a4f28419497f9722a3daafe3b4186f6b6457e091a3600080546001600160a01b0319166001600160a01b0392909216919091179055565b6005546001600160a01b031681565b604080518082018252601081527f30313233343536373839616263646566000000000000000000000000000000006020820152815182815260608181018452926000919060208201818036833701905050905060005b6020811015610aac57826004868360208110610a0157fe5b1a60f81b6001600160f81b031916901c60f81c60ff1681518110610a2157fe5b602001015160f81c60f81b828260020281518110610a3b57fe5b60200101906001600160f81b031916908160001a90535082858260208110610a5f57fe5b825191901a600f16908110610a7057fe5b602001015160f81c60f81b828260020260010181518110610a8d57fe5b60200101906001600160f81b031916908160001a9053506001016109e9565b509392505050565b3390565b805160ff16158015610acc57506020810151155b8015610ada57506040810151155b15610b8057600754604051632aee7a3160e01b81526001600160a01b0390911690632aee7a3190610b0f90859060040161230d565b60206040518083038186803b158015610b2757600080fd5b505afa158015610b3b573d6000803e3d6000fd5b505050506040513d601f19601f82011682018060405250810190610b5f9190611d0b565b610b7b5760405162461bcd60e51b815260040161061390612146565b610bdb565b8160000151600001516001600160a01b0316610bb5826000015183602001518460400151610bad876102bc565b929190610f73565b6001600160a01b031614610bdb5760405162461bcd60e51b815260040161061390612146565b5050565b6002548151602083015160408401516001600160a01b0390931692610c0a929190610bad88886102f5565b6001600160a01b031614610c305760405162461bcd60e51b81526004016106139061217d565b505050565b600082610c4457506000610310565b82820282848281610c5157fe5b041461030d5760405162461bcd60e51b815260040180806020018281038252602181526020018061240a6021913960400191505060405180910390fd5b6000808211610ce4576040805162461bcd60e51b815260206004820152601a60248201527f536166654d6174683a206469766973696f6e206279207a65726f000000000000604482015290519081900360640190fd5b818381610ced57fe5b049392505050565b6006546040516303ec000360e61b81526000916001600160a01b03169063fb0000c090610d269087906004016122ef565b60206040518083038186803b158015610d3e57600080fd5b505afa158015610d52573d6000803e3d6000fd5b505050506040513d601f19601f82011682018060405250810190610d769190611eaf565b90506000610d848284611064565b905083811115610da65760405162461bcd60e51b8152600401610613906120cb565b600654604051631d03b74d60e11b81526001600160a01b0390911690633a076e9a90610dd890889085906004016122fe565b600060405180830381600087803b158015610df257600080fd5b505af1158015610e06573d6000803e3d6000fd5b505050505050505050565b6000610e1d83836110be565b90508083013414610c305760405162461bcd60e51b815260040161061390612263565b60006004836005811115610e5057fe5b1480610e6757506005836005811115610e6557fe5b145b8015610e9357506004826005811115610e7c57fe5b1480610e9357506005826005811115610e9157fe5b145b15610ea057506000610310565b816005811115610eac57fe5b836005811115610eb857fe5b1115610ec657506002610310565b50600192915050565b83610ee557610ee0888888886110d0565b610749565b61074988888888878787611323565b825160408082015160208082015191518188015185516060870151805190850151878c01519590980151965195976001600160a01b03909416967fdddcdb07e460849cf04a4445b7af9faf01b7f5c7ba75deaf969ac5ed830312c396610f669694959394929392918b918d9190612342565b60405180910390a3505050565b6000808590506000610feb6040518060400160405280601a81526020017f19457468657265756d205369676e6564204d6573736167653a0a000000000000815250610fbe8451611628565b60408051600080825260208201818152828401828152606084019283526080840190945288939091611700565b90506001818051906020012087878760405160008152602001604052604051808581526020018460ff1681526020018381526020018281526020019450505050506020604051602081039080840390855afa15801561104e573d6000803e3d6000fd5b5050604051601f19015198975050505050505050565b60008282018381101561030d576040805162461bcd60e51b815260206004820152601b60248201527f536166654d6174683a206164646974696f6e206f766572666c6f770000000000604482015290519081900360640190fd5b600061030d6127106105b28585610c35565b6001846040015160058111156110e257fe5b14156111275760405181906001600160a01b0382169085156108fc029086906000818181858888f19350505050158015611120573d6000803e3d6000fd5b505061131d565b60028460400151600581111561113957fe5b14156111ce576020840151156111615760405162461bcd60e51b81526004016106139061222c565b600554845160405163776062c360e01b81526001600160a01b039092169163776062c3916111979186908690899060040161204e565b600060405180830381600087803b1580156111b157600080fd5b505af11580156111c5573d6000803e3d6000fd5b5050505061131d565b6004846040015160058111156111e057fe5b141561124157826001146112065760405162461bcd60e51b81526004016106139061210f565b60035484516020860151604051637b84dc8360e11b81526001600160a01b039093169263f709b906926111979290918791879160040161204e565b60058460400151600581111561125357fe5b14156112b257826001146112795760405162461bcd60e51b81526004016106139061210f565b60048054855160208701516040516321143af960e21b81526001600160a01b0390931693638450ebe4936111979392889288920161204e565b60035484516020860151604051639c1c2ee960e01b81526001600160a01b0390931692639c1c2ee9926112ef929091879187918a9060040161200b565b600060405180830381600087803b15801561130957600080fd5b505af1158015610749573d6000803e3d6000fd5b50505050565b600061133288878987876119be565b905060038260400151600581111561134657fe5b1480156113d4575081516040516301ffc9a760e01b81526001600160a01b03909116906301ffc9a79061138490632dde656160e21b90600401611fde565b60206040518083038186803b15801561139c57600080fd5b505afa1580156113b0573d6000803e3d6000fd5b505050506040513d601f19601f820116820180604052508101906113d49190611d0b565b8061149457506004826040015160058111156113ec57fe5b1480611407575060058260400151600581111561140557fe5b145b8015611494575081516040516301ffc9a760e01b81526001600160a01b03909116906301ffc9a79061144490632dde656160e21b90600401611fde565b60206040518083038186803b15801561145c57600080fd5b505afa158015611470573d6000803e3d6000fd5b505050506040513d601f19601f820116820180604052508101906114949190611d0b565b1561161b578151602083015160405163b9c4d9fb60e01b81526000916001600160a01b0384169163b9c4d9fb916114cd91600401612339565b60006040518083038186803b1580156114e557600080fd5b505afa1580156114f9573d6000803e3d6000fd5b505050506040513d6000823e601f3d908101601f191682016040526115219190810190611be9565b90506000826001600160a01b0316630ebd4c7f86602001516040518263ffffffff1660e01b81526004016115559190612339565b60006040518083038186803b15801561156d57600080fd5b505afa158015611581573d6000803e3d6000fd5b505050506040513d6000823e601f3d908101601f191682016040526115a99190810190611c87565b905081518151146115b957600080fd5b60005b8151811015611616576000806115e6878e8686815181106115d957fe5b6020026020010151611a1e565b9150915081965061160c8e828e8887815181106115ff57fe5b60200260200101516110d0565b50506001016115bc565b505050505b84610e06898389846110d0565b60608161164d57506040805180820190915260018152600360fc1b60208201526102f0565b8160005b811561166557600101600a82049150611651565b60008167ffffffffffffffff8111801561167e57600080fd5b506040519080825280601f01601f1916602001820160405280156116a9576020820181803683370190505b50905060001982015b85156116f757600a860660300160f81b828280600190039350815181106116d557fe5b60200101906001600160f81b031916908160001a905350600a860495506116b2565b50949350505050565b6060600082518451865188518a518c518e5101010101010167ffffffffffffffff8111801561172e57600080fd5b506040519080825280601f01601f191660200182016040528015611759576020820181803683370190505b5090506000805b8a518110156117b1578a818151811061177557fe5b602001015160f81c60f81b83838060010194508151811061179257fe5b60200101906001600160f81b031916908160001a905350600101611760565b5060005b8951811015611806578981815181106117ca57fe5b602001015160f81c60f81b8383806001019450815181106117e757fe5b60200101906001600160f81b031916908160001a9053506001016117b5565b5060005b885181101561185b5788818151811061181f57fe5b602001015160f81c60f81b83838060010194508151811061183c57fe5b60200101906001600160f81b031916908160001a90535060010161180a565b5060005b87518110156118b05787818151811061187457fe5b602001015160f81c60f81b83838060010194508151811061189157fe5b60200101906001600160f81b031916908160001a90535060010161185f565b5060005b8651811015611905578681815181106118c957fe5b602001015160f81c60f81b8383806001019450815181106118e657fe5b60200101906001600160f81b031916908160001a9053506001016118b4565b5060005b855181101561195a5785818151811061191e57fe5b602001015160f81c60f81b83838060010194508151811061193b57fe5b60200101906001600160f81b031916908160001a905350600101611909565b5060005b84518110156119af5784818151811061197357fe5b602001015160f81c60f81b83838060010194508151811061199057fe5b60200101906001600160f81b031916908160001a90535060010161195e565b50909998505050505050505050565b60008060006119ce868787611a1e565b909250905060006119df87866110be565b905060006119ed8284611064565b90508015611a1057600154611a10908b9083908c906001600160a01b03166110d0565b509198975050505050505050565b600080611a3485611a2f86866110be565b611a40565b91509150935093915050565b60008082841115611a5657505080820381611a5d565b5060009050825b9250929050565b8035600681106102f057600080fd5b600060608284031215611a84578081fd5b6040516060810181811067ffffffffffffffff82111715611aa157fe5b6040529050808235611ab2816123cb565b815260208381013590820152611aca60408401611a64565b60408201525092915050565b60006101008284031215611ae8578081fd5b6040516080810181811067ffffffffffffffff82111715611b0557fe5b6040529050808235611b16816123cb565b815260208381013590820152611b2f8460408501611a73565b6040820152611b418460a08501611a73565b60608201525092915050565b60006101608284031215611b5f578081fd5b6040516080810181811067ffffffffffffffff82111715611b7c57fe5b604052905080611b8c8484611ad6565b81526101008301356020820152610120830135604082015261014083013560608201525092915050565b600060608284031215611bc7578081fd5b50919050565b600060208284031215611bde578081fd5b813561030d816123cb565b60006020808385031215611bfb578182fd5b825167ffffffffffffffff811115611c11578283fd5b8301601f81018513611c21578283fd5b8051611c34611c2f826123ad565b612389565b8181528381019083850185840285018601891015611c50578687fd5b8694505b83851015611c7b578051611c67816123cb565b835260019490940193918501918501611c54565b50979650505050505050565b60006020808385031215611c99578182fd5b825167ffffffffffffffff811115611caf578283fd5b8301601f81018513611cbf578283fd5b8051611ccd611c2f826123ad565b8181528381019083850185840285018601891015611ce9578687fd5b8694505b83851015611c7b578051835260019490940193918501918501611ced565b600060208284031215611d1c578081fd5b8151801515811461030d578182fd5b600060208284031215611d3c578081fd5b61030d82611a64565b600060608284031215611d56578081fd5b61030d8383611a73565b60006101008284031215611bc7578081fd5b60006101008284031215611d84578081fd5b61030d8383611ad6565b600080600080600080868803610280811215611da8578283fd5b61016080821215611db7578384fd5b889750611dc68a828b01611bb6565b965050506101c08701359350611de0886101e08901611bb6565b92506102408701359150610260870135611df9816123cb565b809150509295509295509295565b60006101608284031215611e19578081fd5b61030d8383611b4d565b6000806101808385031215611e36578182fd5b611e408484611b4d565b94610160939093013593505050565b600060608284031215611e60578081fd5b6040516060810181811067ffffffffffffffff82111715611e7d57fe5b604052823560ff81168114611e90578283fd5b8152602083810135908201526040928301359281019290925250919050565b600060208284031215611ec0578081fd5b5051919050565b60068110611ed157fe5b9052565b8035611ee0816123cb565b6001600160a01b0316825260208181013590830152611f0160408201611a64565b610c306040840182611ec7565b6001600160a01b038151168252602081015160208301526040810151610c306040840182611ec7565b6001600160a01b038151168252602081015160208301526040810151611f606040840182611f0e565b506060810151610c3060a0840182611f0e565b611f7e828251611f37565b602081015161010083015260408101516101208301526060015161014090910152565b6001600160a01b0391909116815260200190565b6001600160a01b0394851681529290931660208301526040820152606081019190915260800190565b7fffffffff0000000000000000000000000000000000000000000000000000000091909116815260200190565b6001600160a01b03958616815293851660208501529190931660408301526060820192909252608081019190915260c060a0820181905260009082015260e00190565b6001600160a01b039485168152928416602084015292166040820152606081019190915260800190565b6000602080835283518082850152825b818110156120a457858101830151858201604001528201612088565b818111156120b55783604083870101525b50601f01601f1916929092016040019392505050565b60208082526024908201527f6e6f7420656e6f7567682073746f636b206f66206f7264657220666f7220627560408201526379696e6760e01b606082015260800190565b6020808252601d908201527f76616c75652073686f756c64206265203120666f72204552432d373231000000604082015260600190565b60208082526013908201527f696e636f7272656374207369676e617475726500000000000000000000000000604082015260600190565b6020808252601d908201527f696e636f727265637420627579657220666565207369676e6174757265000000604082015260600190565b60208082526021908201527f455448206973206e6f7420737570706f72746564206f6e2073656c6c207369646040820152606560f81b606082015260800190565b6020808252600c908201527f6e6f7420616e206f776e65720000000000000000000000000000000000000000604082015260600190565b60208082526013908201527f746f6b656e49642073686f756c64206265203000000000000000000000000000604082015260600190565b60208082526016908201527f6d73672e76616c756520697320696e636f727265637400000000000000000000604082015260600190565b610120810183356122aa816123cb565b6001600160a01b038116835250602084013560208301526122d16040830160408601611ed5565b6122e160a0830160a08601611ed5565b826101008301529392505050565b61010081016103108284611f37565b61012081016122e18285611f37565b61016081016103108284611f73565b610180810161232b8285611f73565b826101608301529392505050565b90815260200190565b9788526001600160a01b03968716602089015294861660408801526060870193909352608086019190915290921660a084015260c083019190915260e08201526101000190565b60405181810167ffffffffffffffff811182821017156123a557fe5b604052919050565b600067ffffffffffffffff8211156123c157fe5b5060209081020190565b6001600160a01b03811681146123e057600080fd5b5056fe4f776e61626c653a206e6577206f776e657220697320746865207a65726f2061646472657373536166654d6174683a206d756c7469706c69636174696f6e206f766572666c6f77a164736f6c6343000706000a",
  "devdoc": {
    "kind": "dev",
    "methods": {
      "owner()": {
        "details": "Returns the address of the current owner."
      },
      "renounceOwnership()": {
        "details": "Leaves the contract without owner. It will not be possible to call `onlyOwner` functions anymore. Can only be called by the current owner. NOTE: Renouncing ownership will leave the contract without an owner, thereby removing any functionality that is only available to the owner."
      },
      "transferOwnership(address)": {
        "details": "Transfers ownership of the contract to a new account (`newOwner`). Can only be called by the current owner."
      }
    },
    "version": 1
  },
  "userdoc": {
    "kind": "user",
    "methods": {},
    "version": 1
  },
  "storageLayout": {
    "storage": [
      {
        "astId": 7,
        "contract": "contracts/exchange/ExchangeV1.sol:ExchangeV1",
        "label": "_owner",
        "offset": 0,
        "slot": "0",
        "type": "t_address"
      },
      {
        "astId": 4615,
        "contract": "contracts/exchange/ExchangeV1.sol:ExchangeV1",
        "label": "beneficiary",
        "offset": 0,
        "slot": "1",
        "type": "t_address_payable"
      },
      {
        "astId": 4617,
        "contract": "contracts/exchange/ExchangeV1.sol:ExchangeV1",
        "label": "buyerFeeSigner",
        "offset": 0,
        "slot": "2",
        "type": "t_address"
      },
      {
        "astId": 4619,
        "contract": "contracts/exchange/ExchangeV1.sol:ExchangeV1",
        "label": "transferProxy",
        "offset": 0,
        "slot": "3",
        "type": "t_contract(TransferProxy)5753"
      },
      {
        "astId": 4621,
        "contract": "contracts/exchange/ExchangeV1.sol:ExchangeV1",
        "label": "transferProxyForDeprecated",
        "offset": 0,
        "slot": "4",
        "type": "t_contract(TransferProxyForDeprecated)5782"
      },
      {
        "astId": 4623,
        "contract": "contracts/exchange/ExchangeV1.sol:ExchangeV1",
        "label": "erc20TransferProxy",
        "offset": 0,
        "slot": "5",
        "type": "t_contract(ERC20TransferProxy)5695"
      },
      {
        "astId": 4625,
        "contract": "contracts/exchange/ExchangeV1.sol:ExchangeV1",
        "label": "state",
        "offset": 0,
        "slot": "6",
        "type": "t_contract(ExchangeStateV1)4530"
      },
      {
        "astId": 4627,
        "contract": "contracts/exchange/ExchangeV1.sol:ExchangeV1",
        "label": "ordersHolder",
        "offset": 0,
        "slot": "7",
        "type": "t_contract(ExchangeOrdersHolderV1)4456"
      }
    ],
    "types": {
      "t_address": {
        "encoding": "inplace",
        "label": "address",
        "numberOfBytes": "20"
      },
      "t_address_payable": {
        "encoding": "inplace",
        "label": "address payable",
        "numberOfBytes": "20"
      },
      "t_contract(ERC20TransferProxy)5695": {
        "encoding": "inplace",
        "label": "contract ERC20TransferProxy",
        "numberOfBytes": "20"
      },
      "t_contract(ExchangeOrdersHolderV1)4456": {
        "encoding": "inplace",
        "label": "contract ExchangeOrdersHolderV1",
        "numberOfBytes": "20"
      },
      "t_contract(ExchangeStateV1)4530": {
        "encoding": "inplace",
        "label": "contract ExchangeStateV1",
        "numberOfBytes": "20"
      },
      "t_contract(TransferProxy)5753": {
        "encoding": "inplace",
        "label": "contract TransferProxy",
        "numberOfBytes": "20"
      },
      "t_contract(TransferProxyForDeprecated)5782": {
        "encoding": "inplace",
        "label": "contract TransferProxyForDeprecated",
        "numberOfBytes": "20"
      }
    }
  }
}