{
  "address": "0x4769e82BaC4e7550D9311956fFb945f9eAB66E65",
  "abi": [
    {
      "inputs": [
        {
          "internalType": "string",
          "name": "name",
          "type": "string"
        },
        {
          "internalType": "string",
          "name": "symbol",
          "type": "string"
        }
      ],
      "stateMutability": "nonpayable",
      "type": "constructor"
    },
    {
      "anonymous": false,
      "inputs": [
        {
          "indexed": true,
          "internalType": "address",
          "name": "owner",
          "type": "address"
        },
        {
          "indexed": true,
          "internalType": "address",
          "name": "approved",
          "type": "address"
        },
        {
          "indexed": true,
          "internalType": "uint256",
          "name": "tokenId",
          "type": "uint256"
        }
      ],
      "name": "Approval",
      "type": "event"
    },
    {
      "anonymous": false,
      "inputs": [
        {
          "indexed": true,
          "internalType": "address",
          "name": "owner",
          "type": "address"
        },
        {
          "indexed": true,
          "internalType": "address",
          "name": "operator",
          "type": "address"
        },
        {
          "indexed": false,
          "internalType": "bool",
          "name": "approved",
          "type": "bool"
        }
      ],
      "name": "ApprovalForAll",
      "type": "event"
    },
    {
      "anonymous": false,
      "inputs": [
        {
          "indexed": true,
          "internalType": "address",
          "name": "account",
          "type": "address"
        }
      ],
      "name": "OperatorAdded",
      "type": "event"
    },
    {
      "anonymous": false,
      "inputs": [
        {
          "indexed": true,
          "internalType": "address",
          "name": "account",
          "type": "address"
        }
      ],
      "name": "OperatorRemoved",
      "type": "event"
    },
    {
      "anonymous": false,
      "inputs": [
        {
          "indexed": true,
          "internalType": "address",
          "name": "previousOwner",
          "type": "address"
        },
        {
          "indexed": true,
          "internalType": "address",
          "name": "newOwner",
          "type": "address"
        }
      ],
      "name": "OwnershipTransferred",
      "type": "event"
    },
    {
      "anonymous": false,
      "inputs": [
        {
          "indexed": false,
          "internalType": "uint256",
          "name": "tokenId",
          "type": "uint256"
        },
        {
          "indexed": false,
          "internalType": "address[]",
          "name": "recipients",
          "type": "address[]"
        },
        {
          "indexed": false,
          "internalType": "uint256[]",
          "name": "bps",
          "type": "uint256[]"
        }
      ],
      "name": "SecondarySaleFees",
      "type": "event"
    },
    {
      "anonymous": false,
      "inputs": [
        {
          "indexed": true,
          "internalType": "address",
          "name": "from",
          "type": "address"
        },
        {
          "indexed": true,
          "internalType": "address",
          "name": "to",
          "type": "address"
        },
        {
          "indexed": true,
          "internalType": "uint256",
          "name": "tokenId",
          "type": "uint256"
        }
      ],
      "name": "Transfer",
      "type": "event"
    },
    {
      "inputs": [
        {
          "internalType": "address",
          "name": "account",
          "type": "address"
        }
      ],
      "name": "addOperator",
      "outputs": [],
      "stateMutability": "nonpayable",
      "type": "function"
    },
    {
      "inputs": [
        {
          "internalType": "address[]",
          "name": "_accounts",
          "type": "address[]"
        }
      ],
      "name": "addWhitelist",
      "outputs": [],
      "stateMutability": "nonpayable",
      "type": "function"
    },
    {
      "inputs": [
        {
          "internalType": "address",
          "name": "to",
          "type": "address"
        },
        {
          "internalType": "uint256",
          "name": "tokenId",
          "type": "uint256"
        }
      ],
      "name": "approve",
      "outputs": [],
      "stateMutability": "nonpayable",
      "type": "function"
    },
    {
      "inputs": [
        {
          "internalType": "address",
          "name": "owner",
          "type": "address"
        }
      ],
      "name": "balanceOf",
      "outputs": [
        {
          "internalType": "uint256",
          "name": "",
          "type": "uint256"
        }
      ],
      "stateMutability": "view",
      "type": "function"
    },
    {
      "inputs": [],
      "name": "baseURI",
      "outputs": [
        {
          "internalType": "string",
          "name": "",
          "type": "string"
        }
      ],
      "stateMutability": "view",
      "type": "function"
    },
    {
      "inputs": [
        {
          "internalType": "uint256",
          "name": "tokenId",
          "type": "uint256"
        }
      ],
      "name": "burn",
      "outputs": [],
      "stateMutability": "nonpayable",
      "type": "function"
    },
    {
      "inputs": [
        {
          "internalType": "uint256",
          "name": "tokenId",
          "type": "uint256"
        }
      ],
      "name": "exists",
      "outputs": [
        {
          "internalType": "bool",
          "name": "",
          "type": "bool"
        }
      ],
      "stateMutability": "view",
      "type": "function"
    },
    {
      "inputs": [
        {
          "internalType": "uint256",
          "name": "",
          "type": "uint256"
        },
        {
          "internalType": "uint256",
          "name": "",
          "type": "uint256"
        }
      ],
      "name": "fees",
      "outputs": [
        {
          "internalType": "address payable",
          "name": "recipient",
          "type": "address"
        },
        {
          "internalType": "uint256",
          "name": "value",
          "type": "uint256"
        }
      ],
      "stateMutability": "view",
      "type": "function"
    },
    {
      "inputs": [
        {
          "internalType": "uint256",
          "name": "tokenId",
          "type": "uint256"
        }
      ],
      "name": "getApproved",
      "outputs": [
        {
          "internalType": "address",
          "name": "",
          "type": "address"
        }
      ],
      "stateMutability": "view",
      "type": "function"
    },
    {
      "inputs": [
        {
          "internalType": "uint256",
          "name": "id",
          "type": "uint256"
        }
      ],
      "name": "getFeeBps",
      "outputs": [
        {
          "internalType": "uint256[]",
          "name": "",
          "type": "uint256[]"
        }
      ],
      "stateMutability": "view",
      "type": "function"
    },
    {
      "inputs": [
        {
          "internalType": "uint256",
          "name": "id",
          "type": "uint256"
        }
      ],
      "name": "getFeeRecipients",
      "outputs": [
        {
          "internalType": "address payable[]",
          "name": "",
          "type": "address[]"
        }
      ],
      "stateMutability": "view",
      "type": "function"
    },
    {
      "inputs": [
        {
          "internalType": "address",
          "name": "owner",
          "type": "address"
        },
        {
          "internalType": "address",
          "name": "operator",
          "type": "address"
        }
      ],
      "name": "isApprovedForAll",
      "outputs": [
        {
          "internalType": "bool",
          "name": "",
          "type": "bool"
        }
      ],
      "stateMutability": "view",
      "type": "function"
    },
    {
      "inputs": [
        {
          "internalType": "address",
          "name": "account",
          "type": "address"
        }
      ],
      "name": "isOperator",
      "outputs": [
        {
          "internalType": "bool",
          "name": "",
          "type": "bool"
        }
      ],
      "stateMutability": "view",
      "type": "function"
    },
    {
      "inputs": [
        {
          "internalType": "address",
          "name": "_account",
          "type": "address"
        }
      ],
      "name": "isWhitelist",
      "outputs": [
        {
          "internalType": "bool",
          "name": "",
          "type": "bool"
        }
      ],
      "stateMutability": "view",
      "type": "function"
    },
    {
      "inputs": [
        {
          "internalType": "uint256",
          "name": "tokenId",
          "type": "uint256"
        },
        {
          "internalType": "uint8",
          "name": "v",
          "type": "uint8"
        },
        {
          "internalType": "bytes32",
          "name": "r",
          "type": "bytes32"
        },
        {
          "internalType": "bytes32",
          "name": "s",
          "type": "bytes32"
        },
        {
          "components": [
            {
              "internalType": "address payable",
              "name": "recipient",
              "type": "address"
            },
            {
              "internalType": "uint256",
              "name": "value",
              "type": "uint256"
            }
          ],
          "internalType": "struct ERC721Base.Fee[]",
          "name": "_fees",
          "type": "tuple[]"
        },
        {
          "internalType": "string",
          "name": "tokenURI",
          "type": "string"
        }
      ],
      "name": "mint",
      "outputs": [],
      "stateMutability": "nonpayable",
      "type": "function"
    },
    {
      "inputs": [],
      "name": "name",
      "outputs": [
        {
          "internalType": "string",
          "name": "",
          "type": "string"
        }
      ],
      "stateMutability": "view",
      "type": "function"
    },
    {
      "inputs": [],
      "name": "owner",
      "outputs": [
        {
          "internalType": "address",
          "name": "",
          "type": "address"
        }
      ],
      "stateMutability": "view",
      "type": "function"
    },
    {
      "inputs": [
        {
          "internalType": "uint256",
          "name": "tokenId",
          "type": "uint256"
        }
      ],
      "name": "ownerOf",
      "outputs": [
        {
          "internalType": "address",
          "name": "",
          "type": "address"
        }
      ],
      "stateMutability": "view",
      "type": "function"
    },
    {
      "inputs": [
        {
          "internalType": "address",
          "name": "account",
          "type": "address"
        }
      ],
      "name": "removeOperator",
      "outputs": [],
      "stateMutability": "nonpayable",
      "type": "function"
    },
    {
      "inputs": [
        {
          "internalType": "address[]",
          "name": "_accounts",
          "type": "address[]"
        }
      ],
      "name": "removeWhitelist",
      "outputs": [],
      "stateMutability": "nonpayable",
      "type": "function"
    },
    {
      "inputs": [],
      "name": "renounceOwnership",
      "outputs": [],
      "stateMutability": "nonpayable",
      "type": "function"
    },
    {
      "inputs": [
        {
          "internalType": "address",
          "name": "from",
          "type": "address"
        },
        {
          "internalType": "address",
          "name": "to",
          "type": "address"
        },
        {
          "internalType": "uint256",
          "name": "tokenId",
          "type": "uint256"
        }
      ],
      "name": "safeTransferFrom",
      "outputs": [],
      "stateMutability": "nonpayable",
      "type": "function"
    },
    {
      "inputs": [
        {
          "internalType": "address",
          "name": "from",
          "type": "address"
        },
        {
          "internalType": "address",
          "name": "to",
          "type": "address"
        },
        {
          "internalType": "uint256",
          "name": "tokenId",
          "type": "uint256"
        },
        {
          "internalType": "bytes",
          "name": "_data",
          "type": "bytes"
        }
      ],
      "name": "safeTransferFrom",
      "outputs": [],
      "stateMutability": "nonpayable",
      "type": "function"
    },
    {
      "inputs": [
        {
          "internalType": "address",
          "name": "operator",
          "type": "address"
        },
        {
          "internalType": "bool",
          "name": "approved",
          "type": "bool"
        }
      ],
      "name": "setApprovalForAll",
      "outputs": [],
      "stateMutability": "nonpayable",
      "type": "function"
    },
    {
      "inputs": [
        {
          "internalType": "string",
          "name": "baseURI_",
          "type": "string"
        }
      ],
      "name": "setBaseURI",
      "outputs": [],
      "stateMutability": "nonpayable",
      "type": "function"
    },
    {
      "inputs": [
        {
          "internalType": "uint256",
          "name": "tokenId",
          "type": "uint256"
        },
        {
          "internalType": "string",
          "name": "_tokenURI",
          "type": "string"
        }
      ],
      "name": "setTokenURI",
      "outputs": [],
      "stateMutability": "nonpayable",
      "type": "function"
    },
    {
      "inputs": [
        {
          "internalType": "bytes4",
          "name": "interfaceId",
          "type": "bytes4"
        }
      ],
      "name": "supportsInterface",
      "outputs": [
        {
          "internalType": "bool",
          "name": "",
          "type": "bool"
        }
      ],
      "stateMutability": "view",
      "type": "function"
    },
    {
      "inputs": [],
      "name": "symbol",
      "outputs": [
        {
          "internalType": "string",
          "name": "",
          "type": "string"
        }
      ],
      "stateMutability": "view",
      "type": "function"
    },
    {
      "inputs": [
        {
          "internalType": "uint256",
          "name": "index",
          "type": "uint256"
        }
      ],
      "name": "tokenByIndex",
      "outputs": [
        {
          "internalType": "uint256",
          "name": "",
          "type": "uint256"
        }
      ],
      "stateMutability": "view",
      "type": "function"
    },
    {
      "inputs": [
        {
          "internalType": "address",
          "name": "owner",
          "type": "address"
        },
        {
          "internalType": "uint256",
          "name": "index",
          "type": "uint256"
        }
      ],
      "name": "tokenOfOwnerByIndex",
      "outputs": [
        {
          "internalType": "uint256",
          "name": "",
          "type": "uint256"
        }
      ],
      "stateMutability": "view",
      "type": "function"
    },
    {
      "inputs": [
        {
          "internalType": "uint256",
          "name": "tokenId",
          "type": "uint256"
        }
      ],
      "name": "tokenURI",
      "outputs": [
        {
          "internalType": "string",
          "name": "",
          "type": "string"
        }
      ],
      "stateMutability": "view",
      "type": "function"
    },
    {
      "inputs": [],
      "name": "totalSupply",
      "outputs": [
        {
          "internalType": "uint256",
          "name": "",
          "type": "uint256"
        }
      ],
      "stateMutability": "view",
      "type": "function"
    },
    {
      "inputs": [
        {
          "internalType": "address",
          "name": "from",
          "type": "address"
        },
        {
          "internalType": "address",
          "name": "to",
          "type": "address"
        },
        {
          "internalType": "uint256",
          "name": "tokenId",
          "type": "uint256"
        }
      ],
      "name": "transferFrom",
      "outputs": [],
      "stateMutability": "nonpayable",
      "type": "function"
    },
    {
      "inputs": [
        {
          "internalType": "address",
          "name": "newOwner",
          "type": "address"
        }
      ],
      "name": "transferOwnership",
      "outputs": [],
      "stateMutability": "nonpayable",
      "type": "function"
    }
  ],
  "transactionHash": "0xbe44d0a3d19d294689ba358ada3124871938e4bb90a550580a66030838c6b163",
  "args": [
    "Lion NFT ERC721",
    "LIONNFTERC721"
  ],
  "solcInputHash": "1d744ab9c9d10f5943f429fe3641b18d",
  "bytecode": "0x60806040523480156200001157600080fd5b5060405162003c0538038062003c05833981016040819052620000349162000326565b818181816200004a6301ffc9a760e01b62000156565b6200005c632dde656160e21b62000156565b815162000071906006906020850190620001df565b50805162000087906007906020840190620001df565b506200009a6380ac58cd60e01b62000156565b620000ac635b5e139f60e01b62000156565b620000be63780e9d6360e01b62000156565b5060009050620000cd620001db565b600a80546001600160a01b0319166001600160a01b038316908117909155604051919250906000907f8be0079c531659141344cd1fd0a4f28419497f9722a3daafe3b4186f6b6457e0908290a35050506200014e7fe37243f27916e395706434720b54132b80ef5cc8c56f39b0df6485e8dfb697cf6200015660201b60201c565b50506200038d565b6001600160e01b03198082161415620001b6576040805162461bcd60e51b815260206004820152601c60248201527f4552433136353a20696e76616c696420696e7465726661636520696400000000604482015290519081900360640190fd5b6001600160e01b0319166000908152602081905260409020805460ff19166001179055565b3390565b828054600181600116156101000203166002900490600052602060002090601f01602090048101928262000217576000855562000262565b82601f106200023257805160ff191683800117855562000262565b8280016001018555821562000262579182015b828111156200026257825182559160200191906001019062000245565b506200027092915062000274565b5090565b5b8082111562000270576000815560010162000275565b600082601f8301126200029c578081fd5b81516001600160401b0380821115620002b157fe5b6040516020601f8401601f1916820181018381118382101715620002d157fe5b6040528382528584018101871015620002e8578485fd5b8492505b838310156200030b5785830181015182840182015291820191620002ec565b838311156200031c57848185840101525b5095945050505050565b6000806040838503121562000339578182fd5b82516001600160401b038082111562000350578384fd5b6200035e868387016200028b565b9350602085015191508082111562000374578283fd5b5062000383858286016200028b565b9150509250929050565b613868806200039d6000396000f3fe608060405234801561001057600080fd5b50600436106102265760003560e01c8063672a94001161012a578063a22cb465116100bd578063c683630d1161008c578063e985e9c511610071578063e985e9c51461049d578063edac985b146104b0578063f2fde38b146104c357610226565b8063c683630d14610477578063c87b56dd1461048a57610226565b8063a22cb4651461041e578063ac8a584a14610431578063b88d4fde14610444578063b9c4d9fb1461045757610226565b8063715018a6116100f9578063715018a6146103f35780638da5cb5b146103fb57806395d89b41146104035780639870d7fe1461040b57610226565b8063672a9400146103b25780636c0360eb146103c55780636d70f7ae146103cd57806370a08231146103e057610226565b806323b872dd116101bd5780634f558e791161018c57806355f804b31161017157806355f804b31461036b5780636308f1cd1461037e5780636352211e1461039f57610226565b80634f558e79146103455780634f6ccce71461035857610226565b806323b872dd146102f95780632f745c591461030c57806342842e0e1461031f57806342966c681461033257610226565b80630ebd4c7f116101f95780630ebd4c7f1461029e578063162094c4146102be57806318160ddd146102d157806323245216146102e657610226565b806301ffc9a71461022b57806306fdde0314610254578063081812fc14610269578063095ea7b314610289575b600080fd5b61023e610239366004613132565b6104d6565b60405161024b919061340f565b60405180910390f35b61025c6104f9565b60405161024b919061341a565b61027c61027736600461318d565b61058f565b60405161024b919061335d565b61029c610297366004613069565b6105f1565b005b6102b16102ac36600461318d565b6106c7565b60405161024b91906133d7565b61029c6102cc3660046131a5565b6107d2565b6102d96107e0565b60405161024b91906134db565b61029c6102f4366004613094565b6107f1565b61029c610307366004612f7b565b61088f565b6102d961031a366004613069565b6108e6565b61029c61032d366004612f7b565b610911565b61029c61034036600461318d565b61092c565b61023e61035336600461318d565b61097e565b6102d961036636600461318d565b610989565b61029c61037936600461315a565b610997565b61039161038c3660046131ea565b610a14565b60405161024b929190613371565b61027c6103ad36600461318d565b610a5a565b61029c6103c036600461320b565b610a82565b61025c610b35565b61023e6103db366004612f27565b610b96565b6102d96103ee366004612f27565b610ba3565b61029c610c0b565b61027c610cc9565b61025c610cd8565b61029c610419366004612f27565b610d39565b61029c61042c366004613038565b610db6565b61029c61043f366004612f27565b610ebb565b61029c610452366004612fbb565b610f38565b61046a61046536600461318d565b610f96565b60405161024b919061338a565b61023e610485366004612f27565b6110a6565b61025c61049836600461318d565b6110c4565b61023e6104ab366004612f43565b611345565b61029c6104be366004613094565b611373565b61029c6104d1366004612f27565b611411565b6001600160e01b0319811660009081526020819052604090205460ff165b919050565b60068054604080516020601f60026000196101006001881615020190951694909404938401819004810282018101909252828152606093909290918301828280156105855780601f1061055a57610100808354040283529160200191610585565b820191906000526020600020905b81548152906001019060200180831161056857829003601f168201915b5050505050905090565b600061059a82611526565b6105d55760405162461bcd60e51b815260040180806020018281038252602c815260200180613708602c913960400191505060405180910390fd5b506000908152600460205260409020546001600160a01b031690565b60006105fc82610a5a565b9050806001600160a01b0316836001600160a01b0316141561064f5760405162461bcd60e51b81526004018080602001828103825260218152602001806137da6021913960400191505060405180910390fd5b806001600160a01b0316610661611533565b6001600160a01b0316148061067d575061067d816104ab611533565b6106b85760405162461bcd60e51b815260040180806020018281038252603881526020018061363a6038913960400191505060405180910390fd5b6106c28383611537565b505050565b6000818152600b60209081526040808320805482518185028101850190935280835260609493849084015b8282101561073a576000848152602090819020604080518082019091526002850290910180546001600160a01b031682526001908101548284015290835290920191016106f2565b5050505090506000815167ffffffffffffffff8111801561075a57600080fd5b50604051908082528060200260200182016040528015610784578160200160208202803683370190505b50905060005b82518110156107ca5782818151811061079f57fe5b6020026020010151602001518282815181106107b757fe5b602090810291909101015260010161078a565b509392505050565b6107dc82826115a5565b5050565b60006107ec6002611608565b905090565b6107fc6103db611533565b6108375760405162461bcd60e51b81526004018080602001828103825260348152602001806135da6034913960400191505060405180910390fd5b60005b81518110156107dc576000600d600084848151811061085557fe5b6020908102919091018101516001600160a01b03168252810191909152604001600020805460ff191691151591909117905560010161083a565b6108a061089a611533565b82611613565b6108db5760405162461bcd60e51b81526004018080602001828103825260318152602001806137fb6031913960400191505060405180910390fd5b6106c28383836116b7565b6001600160a01b03821660009081526001602052604081206109089083611803565b90505b92915050565b6106c283838360405180602001604052806000815250610f38565b61093761089a611533565b6109725760405162461bcd60e51b815260040180806020018281038252603081526020018061382c6030913960400191505060405180910390fd5b61097b8161180f565b50565b600061090b82611526565b6000806107ca6002846118dc565b61099f611533565b6001600160a01b03166109b0610cc9565b6001600160a01b031614610a0b576040805162461bcd60e51b815260206004820181905260248201527f4f776e61626c653a2063616c6c6572206973206e6f7420746865206f776e6572604482015290519081900360640190fd5b61097b816118f8565b600b6020528160005260406000208181548110610a3057600080fd5b6000918252602090912060029091020180546001909101546001600160a01b039091169250905082565b600061090b8260405180606001604052806029815260200161369c602991396002919061190b565b336000908152600d602052604090205460ff16610aba5760405162461bcd60e51b8152600401610ab1906134a4565b60405180910390fd5b610afc6103db868686610af4308c604051602001610ad992919061333b565b60405160208183030381529060405280519060200120611922565b929190611a3b565b610b185760405162461bcd60e51b8152600401610ab19061346d565b610b23338784611b2c565b610b2d86826115a5565b505050505050565b60098054604080516020601f60026000196101006001881615020190951694909404938401819004810282018101909252828152606093909290918301828280156105855780601f1061055a57610100808354040283529160200191610585565b600061090b600c83611e71565b60006001600160a01b038216610bea5760405162461bcd60e51b815260040180806020018281038252602a815260200180613672602a913960400191505060405180910390fd5b6001600160a01b038216600090815260016020526040902061090b90611608565b610c13611533565b6001600160a01b0316610c24610cc9565b6001600160a01b031614610c7f576040805162461bcd60e51b815260206004820181905260248201527f4f776e61626c653a2063616c6c6572206973206e6f7420746865206f776e6572604482015290519081900360640190fd5b600a546040516000916001600160a01b0316907f8be0079c531659141344cd1fd0a4f28419497f9722a3daafe3b4186f6b6457e0908390a3600a80546001600160a01b0319169055565b600a546001600160a01b031690565b60078054604080516020601f60026000196101006001881615020190951694909404938401819004810282018101909252828152606093909290918301828280156105855780601f1061055a57610100808354040283529160200191610585565b610d41611533565b6001600160a01b0316610d52610cc9565b6001600160a01b031614610dad576040805162461bcd60e51b815260206004820181905260248201527f4f776e61626c653a2063616c6c6572206973206e6f7420746865206f776e6572604482015290519081900360640190fd5b61097b81611ed8565b610dbe611533565b6001600160a01b0316826001600160a01b03161415610e24576040805162461bcd60e51b815260206004820152601960248201527f4552433732313a20617070726f766520746f2063616c6c657200000000000000604482015290519081900360640190fd5b8060056000610e31611533565b6001600160a01b03908116825260208083019390935260409182016000908120918716808252919093529120805460ff191692151592909217909155610e75611533565b6001600160a01b03167f17307eab39ab6107e8899845ad3d59bd9653f200f220920489ca2b5937696c318360405180821515815260200191505060405180910390a35050565b610ec3611533565b6001600160a01b0316610ed4610cc9565b6001600160a01b031614610f2f576040805162461bcd60e51b815260206004820181905260248201527f4f776e61626c653a2063616c6c6572206973206e6f7420746865206f776e6572604482015290519081900360640190fd5b61097b81611f1a565b610f49610f43611533565b83611613565b610f845760405162461bcd60e51b81526004018080602001828103825260318152602001806137fb6031913960400191505060405180910390fd5b610f9084848484611f5c565b50505050565b6000818152600b60209081526040808320805482518185028101850190935280835260609493849084015b82821015611009576000848152602090819020604080518082019091526002850290910180546001600160a01b03168252600190810154828401529083529092019101610fc1565b5050505090506000815167ffffffffffffffff8111801561102957600080fd5b50604051908082528060200260200182016040528015611053578160200160208202803683370190505b50905060005b82518110156107ca5782818151811061106e57fe5b60200260200101516000015182828151811061108657fe5b6001600160a01b0390921660209283029190910190910152600101611059565b6001600160a01b03166000908152600d602052604090205460ff1690565b60606110cf82611526565b61110a5760405162461bcd60e51b815260040180806020018281038252602f8152602001806137ab602f913960400191505060405180910390fd5b60008281526008602090815260408083208054825160026001831615610100026000190190921691909104601f81018590048502820185019093528281529290919083018282801561119d5780601f106111725761010080835404028352916020019161119d565b820191906000526020600020905b81548152906001019060200180831161118057829003601f168201915b5050505050905060006111ae610b35565b90508051600014156111c2575090506104f4565b8151156112835780826040516020018083805190602001908083835b602083106111fd5780518252601f1990920191602091820191016111de565b51815160209384036101000a600019018019909216911617905285519190930192850191508083835b602083106112455780518252601f199092019160209182019101611226565b6001836020036101000a03801982511681845116808217855250505050505090500192505050604051602081830303815290604052925050506104f4565b8061128d85611fae565b6040516020018083805190602001908083835b602083106112bf5780518252601f1990920191602091820191016112a0565b51815160209384036101000a600019018019909216911617905285519190930192850191508083835b602083106113075780518252601f1990920191602091820191016112e8565b6001836020036101000a0380198251168184511680821785525050505050509050019250505060405160208183030381529060405292505050919050565b6001600160a01b03918216600090815260056020908152604080832093909416825291909152205460ff1690565b61137e6103db611533565b6113b95760405162461bcd60e51b81526004018080602001828103825260348152602001806135da6034913960400191505060405180910390fd5b60005b81518110156107dc576001600d60008484815181106113d757fe5b6020908102919091018101516001600160a01b03168252810191909152604001600020805460ff19169115159190911790556001016113bc565b611419611533565b6001600160a01b031661142a610cc9565b6001600160a01b031614611485576040805162461bcd60e51b815260206004820181905260248201527f4f776e61626c653a2063616c6c6572206973206e6f7420746865206f776e6572604482015290519081900360640190fd5b6001600160a01b0381166114ca5760405162461bcd60e51b81526004018080602001828103825260268152602001806135906026913960400191505060405180910390fd5b600a546040516001600160a01b038084169216907f8be0079c531659141344cd1fd0a4f28419497f9722a3daafe3b4186f6b6457e090600090a3600a80546001600160a01b0319166001600160a01b0392909216919091179055565b600061090b600283612089565b3390565b600081815260046020526040902080546001600160a01b0319166001600160a01b038416908117909155819061156c82610a5a565b6001600160a01b03167f8c5be1e5ebec7d5bd14f71427d1e84f3dd0314c0f7b2291e5b200ac8c7c3b92560405160405180910390a45050565b6115ae82611526565b6115e95760405162461bcd60e51b815260040180806020018281038252602c815260200180613734602c913960400191505060405180910390fd5b600082815260086020908152604090912082516106c292840190612dd5565b600061090b82612095565b600061161e82611526565b6116595760405162461bcd60e51b815260040180806020018281038252602c81526020018061360e602c913960400191505060405180910390fd5b600061166483610a5a565b9050806001600160a01b0316846001600160a01b0316148061169f5750836001600160a01b03166116948461058f565b6001600160a01b0316145b806116af57506116af8185611345565b949350505050565b826001600160a01b03166116ca82610a5a565b6001600160a01b03161461170f5760405162461bcd60e51b81526004018080602001828103825260298152602001806137826029913960400191505060405180910390fd5b6001600160a01b0382166117545760405162461bcd60e51b81526004018080602001828103825260248152602001806135b66024913960400191505060405180910390fd5b61175f8383836106c2565b61176a600082611537565b6001600160a01b038316600090815260016020526040902061178c9082612099565b506001600160a01b03821660009081526001602052604090206117af90826120a5565b506117bc600282846120b1565b5080826001600160a01b0316846001600160a01b03167fddf252ad1be2c89b69c2b068fc378daa952ba7f163c4a11628f55a4df523b3ef60405160405180910390a4505050565b600061090883836120c7565b600061181a82610a5a565b9050611828816000846106c2565b611833600083611537565b600082815260086020526040902054600260001961010060018416150201909116041561187157600082815260086020526040812061187191612e61565b6001600160a01b03811660009081526001602052604090206118939083612099565b5061189f60028361212b565b5060405182906000906001600160a01b038416907fddf252ad1be2c89b69c2b068fc378daa952ba7f163c4a11628f55a4df523b3ef908390a45050565b60008080806118eb8686612137565b9097909650945050505050565b80516107dc906009906020840190612dd5565b60006119188484846121b2565b90505b9392505050565b604080518082018252601081527f30313233343536373839616263646566000000000000000000000000000000006020820152815182815260608181018452926000919060208201818036833701905050905060005b60208110156107ca5782600486836020811061199057fe5b1a60f81b6001600160f81b031916901c60f81c60ff16815181106119b057fe5b602001015160f81c60f81b8282600202815181106119ca57fe5b60200101906001600160f81b031916908160001a905350828582602081106119ee57fe5b825191901a600f169081106119ff57fe5b602001015160f81c60f81b828260020260010181518110611a1c57fe5b60200101906001600160f81b031916908160001a905350600101611978565b6000808590506000611ab36040518060400160405280601a81526020017f19457468657265756d205369676e6564204d6573736167653a0a000000000000815250611a86845161227c565b6040805160008082526020820181815282840182815260608401928352608084019094528893909161234b565b90506001818051906020012087878760405160008152602001604052604051808581526020018460ff1681526020018381526020018281526020019450505050506020604051602081039080840390855afa158015611b16573d6000803e3d6000fd5b5050604051601f19015198975050505050505050565b611b368383612609565b6000815167ffffffffffffffff81118015611b5057600080fd5b50604051908082528060200260200182016040528015611b7a578160200160208202803683370190505b5090506000825167ffffffffffffffff81118015611b9757600080fd5b50604051908082528060200260200182016040528015611bc1578160200160208202803683370190505b50905060005b8351811015611d9e5760006001600160a01b0316848281518110611be757fe5b6020026020010151600001516001600160a01b03161415611c4f576040805162461bcd60e51b815260206004820152601b60248201527f526563697069656e742073686f756c642062652070726573656e740000000000604482015290519081900360640190fd5b838181518110611c5b57fe5b60200260200101516020015160001415611cbc576040805162461bcd60e51b815260206004820152601c60248201527f4665652076616c75652073686f756c6420626520706f73697469766500000000604482015290519081900360640190fd5b6000858152600b602052604090208451859083908110611cd857fe5b602090810291909101810151825460018082018555600094855293839020825160029092020180546001600160a01b0319166001600160a01b039092169190911781559101519101558351849082908110611d2f57fe5b602002602001015160000151838281518110611d4757fe5b60200260200101906001600160a01b031690816001600160a01b031681525050838181518110611d7357fe5b602002602001015160200151828281518110611d8b57fe5b6020908102919091010152600101611bc7565b50825115611e6a577f99aba1d63749cfd5ad1afda7c4663840924d54eb5f005bbbeadedc6ec13674b2848383604051808481526020018060200180602001838103835285818151815260200191508051906020019060200280838360005b83811015611e14578181015183820152602001611dfc565b50505050905001838103825284818151815260200191508051906020019060200280838360005b83811015611e53578181015183820152602001611e3b565b505050509050019550505050505060405180910390a15b5050505050565b60006001600160a01b038216611eb85760405162461bcd60e51b81526004018080602001828103825260228152602001806137606022913960400191505060405180910390fd5b506001600160a01b03166000908152602091909152604090205460ff1690565b611ee3600c82612737565b6040516001600160a01b038216907fac6fa858e9350a46cec16539926e0fde25b7629f84b5a72bffaae4df888ae86d90600090a250565b611f25600c826127b8565b6040516001600160a01b038216907f80c0b871b97b595b16a7741c1b06fed0c6f6f558639f18ccbce50724325dc40d90600090a250565b611f678484846116b7565b611f738484848461281f565b610f905760405162461bcd60e51b815260040180806020018281038252603281526020018061355e6032913960400191505060405180910390fd5b606081611fd357506040805180820190915260018152600360fc1b60208201526104f4565b8160005b8115611feb57600101600a82049150611fd7565b60008167ffffffffffffffff8111801561200457600080fd5b506040519080825280601f01601f19166020018201604052801561202f576020820181803683370190505b50859350905060001982015b831561208057600a840660300160f81b8282806001900393508151811061205e57fe5b60200101906001600160f81b031916908160001a905350600a8404935061203b565b50949350505050565b600061090883836129b1565b5490565b600061090883836129c9565b60006109088383612a8f565b600061191884846001600160a01b038516612ad9565b815460009082106121095760405162461bcd60e51b815260040180806020018281038252602281526020018061353c6022913960400191505060405180910390fd5b82600001828154811061211857fe5b9060005260206000200154905092915050565b60006109088383612b70565b81546000908190831061217b5760405162461bcd60e51b81526004018080602001828103825260228152602001806136e66022913960400191505060405180910390fd5b600084600001848154811061218c57fe5b906000526020600020906002020190508060000154816001015492509250509250929050565b6000828152600184016020526040812054828161224d5760405162461bcd60e51b81526004018080602001828103825283818151815260200191508051906020019080838360005b838110156122125781810151838201526020016121fa565b50505050905090810190601f16801561223f5780820380516001836020036101000a031916815260200191505b509250505060405180910390fd5b5084600001600182038154811061226057fe5b9060005260206000209060020201600101549150509392505050565b6060816122a157506040805180820190915260018152600360fc1b60208201526104f4565b8160005b81156122b957600101600a820491506122a5565b60008167ffffffffffffffff811180156122d257600080fd5b506040519080825280601f01601f1916602001820160405280156122fd576020820181803683370190505b50905060001982015b851561208057600a860660300160f81b8282806001900393508151811061232957fe5b60200101906001600160f81b031916908160001a905350600a86049550612306565b6060600082518451865188518a518c518e5101010101010167ffffffffffffffff8111801561237957600080fd5b506040519080825280601f01601f1916602001820160405280156123a4576020820181803683370190505b5090506000805b8a518110156123fc578a81815181106123c057fe5b602001015160f81c60f81b8383806001019450815181106123dd57fe5b60200101906001600160f81b031916908160001a9053506001016123ab565b5060005b89518110156124515789818151811061241557fe5b602001015160f81c60f81b83838060010194508151811061243257fe5b60200101906001600160f81b031916908160001a905350600101612400565b5060005b88518110156124a65788818151811061246a57fe5b602001015160f81c60f81b83838060010194508151811061248757fe5b60200101906001600160f81b031916908160001a905350600101612455565b5060005b87518110156124fb578781815181106124bf57fe5b602001015160f81c60f81b8383806001019450815181106124dc57fe5b60200101906001600160f81b031916908160001a9053506001016124aa565b5060005b86518110156125505786818151811061251457fe5b602001015160f81c60f81b83838060010194508151811061253157fe5b60200101906001600160f81b031916908160001a9053506001016124ff565b5060005b85518110156125a55785818151811061256957fe5b602001015160f81c60f81b83838060010194508151811061258657fe5b60200101906001600160f81b031916908160001a905350600101612554565b5060005b84518110156125fa578481815181106125be57fe5b602001015160f81c60f81b8383806001019450815181106125db57fe5b60200101906001600160f81b031916908160001a9053506001016125a9565b50909998505050505050505050565b6001600160a01b038216612664576040805162461bcd60e51b815260206004820181905260248201527f4552433732313a206d696e7420746f20746865207a65726f2061646472657373604482015290519081900360640190fd5b61266d81611526565b156126bf576040805162461bcd60e51b815260206004820152601c60248201527f4552433732313a20746f6b656e20616c7265616479206d696e74656400000000604482015290519081900360640190fd5b6126cb600083836106c2565b6001600160a01b03821660009081526001602052604090206126ed90826120a5565b506126fa600282846120b1565b5060405181906001600160a01b038416906000907fddf252ad1be2c89b69c2b068fc378daa952ba7f163c4a11628f55a4df523b3ef908290a45050565b6127418282611e71565b15612793576040805162461bcd60e51b815260206004820152601f60248201527f526f6c65733a206163636f756e7420616c72656164792068617320726f6c6500604482015290519081900360640190fd5b6001600160a01b0316600090815260209190915260409020805460ff19166001179055565b6127c28282611e71565b6127fd5760405162461bcd60e51b81526004018080602001828103825260218152602001806136c56021913960400191505060405180910390fd5b6001600160a01b0316600090815260209190915260409020805460ff19169055565b6000612833846001600160a01b0316612c44565b61283f575060016116af565b6000612977630a85bd0160e11b612854611533565b88878760405160240180856001600160a01b03168152602001846001600160a01b0316815260200183815260200180602001828103825283818151815260200191508051906020019080838360005b838110156128bb5781810151838201526020016128a3565b50505050905090810190601f1680156128e85780820380516001836020036101000a031916815260200191505b5095505050505050604051602081830303815290604052907bffffffffffffffffffffffffffffffffffffffffffffffffffffffff19166020820180517bffffffffffffffffffffffffffffffffffffffffffffffffffffffff838183161783525050505060405180606001604052806032815260200161355e603291396001600160a01b0388169190612c4a565b9050600081806020019051602081101561299057600080fd5b50516001600160e01b031916630a85bd0160e11b1492505050949350505050565b60009081526001919091016020526040902054151590565b60008181526001830160205260408120548015612a8557835460001980830191908101906000908790839081106129fc57fe5b9060005260206000200154905080876000018481548110612a1957fe5b600091825260208083209091019290925582815260018981019092526040902090840190558654879080612a4957fe5b6001900381819060005260206000200160009055905586600101600087815260200190815260200160002060009055600194505050505061090b565b600091505061090b565b6000612a9b83836129b1565b612ad15750815460018181018455600084815260208082209093018490558454848252828601909352604090209190915561090b565b50600061090b565b600082815260018401602052604081205480612b3e57505060408051808201825283815260208082018481528654600181810189556000898152848120955160029093029095019182559151908201558654868452818801909252929091205561191b565b82856000016001830381548110612b5157fe5b906000526020600020906002020160010181905550600091505061191b565b60008181526001830160205260408120548015612a855783546000198083019190810190600090879083908110612ba357fe5b9060005260206000209060020201905080876000018481548110612bc357fe5b600091825260208083208454600290930201918255600193840154918401919091558354825289830190526040902090840190558654879080612c0257fe5b600082815260208082206002600019909401938402018281556001908101839055929093558881528982019092526040822091909155945061090b9350505050565b3b151590565b6060611918848460008585612c5e85612c44565b612caf576040805162461bcd60e51b815260206004820152601d60248201527f416464726573733a2063616c6c20746f206e6f6e2d636f6e7472616374000000604482015290519081900360640190fd5b600080866001600160a01b031685876040518082805190602001908083835b60208310612ced5780518252601f199092019160209182019101612cce565b6001836020036101000a03801982511681845116808217855250505050505090500191505060006040518083038185875af1925050503d8060008114612d4f576040519150601f19603f3d011682016040523d82523d6000602084013e612d54565b606091505b5091509150612d64828286612d6f565b979650505050505050565b60608315612d7e57508161191b565b825115612d8e5782518084602001fd5b60405162461bcd60e51b81526020600482018181528451602484015284518593919283926044019190850190808383600083156122125781810151838201526020016121fa565b828054600181600116156101000203166002900490600052602060002090601f016020900481019282612e0b5760008555612e51565b82601f10612e2457805160ff1916838001178555612e51565b82800160010185558215612e51579182015b82811115612e51578251825591602001919060010190612e36565b50612e5d929150612ea1565b5090565b50805460018160011615610100020316600290046000825580601f10612e87575061097b565b601f01602090049060005260206000209081019061097b91905b5b80821115612e5d5760008155600101612ea2565b600067ffffffffffffffff831115612eca57fe5b612edd601f8401601f19166020016134e4565b9050828152838383011115612ef157600080fd5b828260208301376000602084830101529392505050565b600082601f830112612f18578081fd5b61090883833560208501612eb6565b600060208284031215612f38578081fd5b813561191b81613526565b60008060408385031215612f55578081fd5b8235612f6081613526565b91506020830135612f7081613526565b809150509250929050565b600080600060608486031215612f8f578081fd5b8335612f9a81613526565b92506020840135612faa81613526565b929592945050506040919091013590565b60008060008060808587031215612fd0578081fd5b8435612fdb81613526565b93506020850135612feb81613526565b925060408501359150606085013567ffffffffffffffff81111561300d578182fd5b8501601f8101871361301d578182fd5b61302c87823560208401612eb6565b91505092959194509250565b6000806040838503121561304a578182fd5b823561305581613526565b915060208301358015158114612f70578182fd5b6000806040838503121561307b578182fd5b823561308681613526565b946020939093013593505050565b600060208083850312156130a6578182fd5b823567ffffffffffffffff8111156130bc578283fd5b8301601f810185136130cc578283fd5b80356130df6130da82613508565b6134e4565b81815283810190838501858402850186018910156130fb578687fd5b8694505b8385101561312657803561311281613526565b8352600194909401939185019185016130ff565b50979650505050505050565b600060208284031215613143578081fd5b81356001600160e01b03198116811461191b578182fd5b60006020828403121561316b578081fd5b813567ffffffffffffffff811115613181578182fd5b6116af84828501612f08565b60006020828403121561319e578081fd5b5035919050565b600080604083850312156131b7578182fd5b82359150602083013567ffffffffffffffff8111156131d4578182fd5b6131e085828601612f08565b9150509250929050565b600080604083850312156131fc578182fd5b50508035926020909101359150565b60008060008060008060c08789031215613223578384fd5b86359550602087013560ff8116811461323a578485fd5b94506040870135935060608701359250608087013567ffffffffffffffff80821115613264578384fd5b818901915089601f830112613277578384fd5b81356132856130da82613508565b80828252602082019150602085018d60206040860288010111156132a7578788fd5b8795505b83861015613309576040818f0312156132c2578788fd5b6040516040810181811087821117156132d757fe5b6040526132e48235613526565b81358152602080830135818301529084526001969096019592909201916040016132ab565b509550505060a0890135915080821115613321578283fd5b5061332e89828a01612f08565b9150509295509295509295565b60609290921b6bffffffffffffffffffffffff19168252601482015260340190565b6001600160a01b0391909116815260200190565b6001600160a01b03929092168252602082015260400190565b6020808252825182820181905260009190848201906040850190845b818110156133cb5783516001600160a01b0316835292840192918401916001016133a6565b50909695505050505050565b6020808252825182820181905260009190848201906040850190845b818110156133cb578351835292840192918401916001016133f3565b901515815260200190565b6000602080835283518082850152825b818110156134465785810183015185820160400152820161342a565b818111156134575783604083870101525b50601f01601f1916929092016040019392505050565b60208082526019908201527f6f776e65722073686f756c64207369676e20746f6b656e496400000000000000604082015260600190565b6020808252601e908201527f6d73672e73656e646572206973206e6f7420696e2077686974656c6973740000604082015260600190565b90815260200190565b60405181810167ffffffffffffffff8111828210171561350057fe5b604052919050565b600067ffffffffffffffff82111561351c57fe5b5060209081020190565b6001600160a01b038116811461097b57600080fdfe456e756d657261626c655365743a20696e646578206f7574206f6620626f756e64734552433732313a207472616e7366657220746f206e6f6e20455243373231526563656976657220696d706c656d656e7465724f776e61626c653a206e6577206f776e657220697320746865207a65726f20616464726573734552433732313a207472616e7366657220746f20746865207a65726f20616464726573734f70657261746f72526f6c653a2063616c6c657220646f6573206e6f74206861766520746865204f70657261746f7220726f6c654552433732313a206f70657261746f7220717565727920666f72206e6f6e6578697374656e7420746f6b656e4552433732313a20617070726f76652063616c6c6572206973206e6f74206f776e6572206e6f7220617070726f76656420666f7220616c6c4552433732313a2062616c616e636520717565727920666f7220746865207a65726f20616464726573734552433732313a206f776e657220717565727920666f72206e6f6e6578697374656e7420746f6b656e526f6c65733a206163636f756e7420646f6573206e6f74206861766520726f6c65456e756d657261626c654d61703a20696e646578206f7574206f6620626f756e64734552433732313a20617070726f76656420717565727920666f72206e6f6e6578697374656e7420746f6b656e4552433732314d657461646174613a2055524920736574206f66206e6f6e6578697374656e7420746f6b656e526f6c65733a206163636f756e7420697320746865207a65726f20616464726573734552433732313a207472616e73666572206f6620746f6b656e2074686174206973206e6f74206f776e4552433732314d657461646174613a2055524920717565727920666f72206e6f6e6578697374656e7420746f6b656e4552433732313a20617070726f76616c20746f2063757272656e74206f776e65724552433732313a207472616e736665722063616c6c6572206973206e6f74206f776e6572206e6f7220617070726f7665644552433732314275726e61626c653a2063616c6c6572206973206e6f74206f776e6572206e6f7220617070726f766564a164736f6c6343000706000a",
  "devdoc": {
    "kind": "dev",
    "methods": {
      "approve(address,uint256)": {
        "details": "See {IERC721-approve}."
      },
      "balanceOf(address)": {
        "details": "See {IERC721-balanceOf}."
      },
      "baseURI()": {
        "details": "Returns the base URI set via {_setBaseURI}. This will be automatically added as a prefix in {tokenURI} to each token's URI, or to the token ID if no specific URI is set for that token ID."
      },
      "burn(uint256)": {
        "details": "Burns `tokenId`. See {ERC721-_burn}. Requirements: - The caller must own `tokenId` or be an approved operator."
      },
      "getApproved(uint256)": {
        "details": "See {IERC721-getApproved}."
      },
      "isApprovedForAll(address,address)": {
        "details": "See {IERC721-isApprovedForAll}."
      },
      "name()": {
        "details": "See {IERC721Metadata-name}."
      },
      "owner()": {
        "details": "Returns the address of the current owner."
      },
      "ownerOf(uint256)": {
        "details": "See {IERC721-ownerOf}."
      },
      "renounceOwnership()": {
        "details": "Leaves the contract without owner. It will not be possible to call `onlyOwner` functions anymore. Can only be called by the current owner. NOTE: Renouncing ownership will leave the contract without an owner, thereby removing any functionality that is only available to the owner."
      },
      "safeTransferFrom(address,address,uint256)": {
        "details": "See {IERC721-safeTransferFrom}."
      },
      "safeTransferFrom(address,address,uint256,bytes)": {
        "details": "See {IERC721-safeTransferFrom}."
      },
      "setApprovalForAll(address,bool)": {
        "details": "See {IERC721-setApprovalForAll}."
      },
      "supportsInterface(bytes4)": {
        "details": "See {IERC165-supportsInterface}. Time complexity O(1), guaranteed to always use less than 30 000 gas."
      },
      "symbol()": {
        "details": "See {IERC721Metadata-symbol}."
      },
      "tokenByIndex(uint256)": {
        "details": "See {IERC721Enumerable-tokenByIndex}."
      },
      "tokenOfOwnerByIndex(address,uint256)": {
        "details": "See {IERC721Enumerable-tokenOfOwnerByIndex}."
      },
      "tokenURI(uint256)": {
        "details": "See {IERC721Metadata-tokenURI}."
      },
      "totalSupply()": {
        "details": "See {IERC721Enumerable-totalSupply}."
      },
      "transferFrom(address,address,uint256)": {
        "details": "See {IERC721-transferFrom}."
      },
      "transferOwnership(address)": {
        "details": "Transfers ownership of the contract to a new account (`newOwner`). Can only be called by the current owner."
      }
    },
    "version": 1
  },
  "userdoc": {
    "kind": "user",
    "methods": {},
    "version": 1
  },
  "storageLayout": {
    "storage": [
      {
        "astId": 123,
        "contract": "contracts/LionNFTERC721.sol:LionNFTERC721",
        "label": "_supportedInterfaces",
        "offset": 0,
        "slot": "0",
        "type": "t_mapping(t_bytes4,t_bool)"
      },
      {
        "astId": 1323,
        "contract": "contracts/LionNFTERC721.sol:LionNFTERC721",
        "label": "_holderTokens",
        "offset": 0,
        "slot": "1",
        "type": "t_mapping(t_address,t_struct(UintSet)3719_storage)"
      },
      {
        "astId": 1325,
        "contract": "contracts/LionNFTERC721.sol:LionNFTERC721",
        "label": "_tokenOwners",
        "offset": 0,
        "slot": "2",
        "type": "t_struct(UintToAddressMap)3096_storage"
      },
      {
        "astId": 1329,
        "contract": "contracts/LionNFTERC721.sol:LionNFTERC721",
        "label": "_tokenApprovals",
        "offset": 0,
        "slot": "4",
        "type": "t_mapping(t_uint256,t_address)"
      },
      {
        "astId": 1335,
        "contract": "contracts/LionNFTERC721.sol:LionNFTERC721",
        "label": "_operatorApprovals",
        "offset": 0,
        "slot": "5",
        "type": "t_mapping(t_address,t_mapping(t_address,t_bool))"
      },
      {
        "astId": 1337,
        "contract": "contracts/LionNFTERC721.sol:LionNFTERC721",
        "label": "_name",
        "offset": 0,
        "slot": "6",
        "type": "t_string_storage"
      },
      {
        "astId": 1339,
        "contract": "contracts/LionNFTERC721.sol:LionNFTERC721",
        "label": "_symbol",
        "offset": 0,
        "slot": "7",
        "type": "t_string_storage"
      },
      {
        "astId": 1343,
        "contract": "contracts/LionNFTERC721.sol:LionNFTERC721",
        "label": "_tokenURIs",
        "offset": 0,
        "slot": "8",
        "type": "t_mapping(t_uint256,t_string_storage)"
      },
      {
        "astId": 1345,
        "contract": "contracts/LionNFTERC721.sol:LionNFTERC721",
        "label": "_baseURI",
        "offset": 0,
        "slot": "9",
        "type": "t_string_storage"
      },
      {
        "astId": 7,
        "contract": "contracts/LionNFTERC721.sol:LionNFTERC721",
        "label": "_owner",
        "offset": 0,
        "slot": "10",
        "type": "t_address"
      },
      {
        "astId": 7014,
        "contract": "contracts/LionNFTERC721.sol:LionNFTERC721",
        "label": "fees",
        "offset": 0,
        "slot": "11",
        "type": "t_mapping(t_uint256,t_array(t_struct(Fee)7009_storage)dyn_storage)"
      },
      {
        "astId": 5801,
        "contract": "contracts/LionNFTERC721.sol:LionNFTERC721",
        "label": "_operators",
        "offset": 0,
        "slot": "12",
        "type": "t_struct(Role)7386_storage"
      },
      {
        "astId": 4113,
        "contract": "contracts/LionNFTERC721.sol:LionNFTERC721",
        "label": "whitelist",
        "offset": 0,
        "slot": "13",
        "type": "t_mapping(t_address,t_bool)"
      }
    ],
    "types": {
      "t_address": {
        "encoding": "inplace",
        "label": "address",
        "numberOfBytes": "20"
      },
      "t_address_payable": {
        "encoding": "inplace",
        "label": "address payable",
        "numberOfBytes": "20"
      },
      "t_array(t_bytes32)dyn_storage": {
        "base": "t_bytes32",
        "encoding": "dynamic_array",
        "label": "bytes32[]",
        "numberOfBytes": "32"
      },
      "t_array(t_struct(Fee)7009_storage)dyn_storage": {
        "base": "t_struct(Fee)7009_storage",
        "encoding": "dynamic_array",
        "label": "struct ERC721Base.Fee[]",
        "numberOfBytes": "32"
      },
      "t_array(t_struct(MapEntry)2770_storage)dyn_storage": {
        "base": "t_struct(MapEntry)2770_storage",
        "encoding": "dynamic_array",
        "label": "struct EnumerableMap.MapEntry[]",
        "numberOfBytes": "32"
      },
      "t_bool": {
        "encoding": "inplace",
        "label": "bool",
        "numberOfBytes": "1"
      },
      "t_bytes32": {
        "encoding": "inplace",
        "label": "bytes32",
        "numberOfBytes": "32"
      },
      "t_bytes4": {
        "encoding": "inplace",
        "label": "bytes4",
        "numberOfBytes": "4"
      },
      "t_mapping(t_address,t_bool)": {
        "encoding": "mapping",
        "key": "t_address",
        "label": "mapping(address => bool)",
        "numberOfBytes": "32",
        "value": "t_bool"
      },
      "t_mapping(t_address,t_mapping(t_address,t_bool))": {
        "encoding": "mapping",
        "key": "t_address",
        "label": "mapping(address => mapping(address => bool))",
        "numberOfBytes": "32",
        "value": "t_mapping(t_address,t_bool)"
      },
      "t_mapping(t_address,t_struct(UintSet)3719_storage)": {
        "encoding": "mapping",
        "key": "t_address",
        "label": "mapping(address => struct EnumerableSet.UintSet)",
        "numberOfBytes": "32",
        "value": "t_struct(UintSet)3719_storage"
      },
      "t_mapping(t_bytes32,t_uint256)": {
        "encoding": "mapping",
        "key": "t_bytes32",
        "label": "mapping(bytes32 => uint256)",
        "numberOfBytes": "32",
        "value": "t_uint256"
      },
      "t_mapping(t_bytes4,t_bool)": {
        "encoding": "mapping",
        "key": "t_bytes4",
        "label": "mapping(bytes4 => bool)",
        "numberOfBytes": "32",
        "value": "t_bool"
      },
      "t_mapping(t_uint256,t_address)": {
        "encoding": "mapping",
        "key": "t_uint256",
        "label": "mapping(uint256 => address)",
        "numberOfBytes": "32",
        "value": "t_address"
      },
      "t_mapping(t_uint256,t_array(t_struct(Fee)7009_storage)dyn_storage)": {
        "encoding": "mapping",
        "key": "t_uint256",
        "label": "mapping(uint256 => struct ERC721Base.Fee[])",
        "numberOfBytes": "32",
        "value": "t_array(t_struct(Fee)7009_storage)dyn_storage"
      },
      "t_mapping(t_uint256,t_string_storage)": {
        "encoding": "mapping",
        "key": "t_uint256",
        "label": "mapping(uint256 => string)",
        "numberOfBytes": "32",
        "value": "t_string_storage"
      },
      "t_string_storage": {
        "encoding": "bytes",
        "label": "string",
        "numberOfBytes": "32"
      },
      "t_struct(Fee)7009_storage": {
        "encoding": "inplace",
        "label": "struct ERC721Base.Fee",
        "members": [
          {
            "astId": 7006,
            "contract": "contracts/LionNFTERC721.sol:LionNFTERC721",
            "label": "recipient",
            "offset": 0,
            "slot": "0",
            "type": "t_address_payable"
          },
          {
            "astId": 7008,
            "contract": "contracts/LionNFTERC721.sol:LionNFTERC721",
            "label": "value",
            "offset": 0,
            "slot": "1",
            "type": "t_uint256"
          }
        ],
        "numberOfBytes": "64"
      },
      "t_struct(Map)2778_storage": {
        "encoding": "inplace",
        "label": "struct EnumerableMap.Map",
        "members": [
          {
            "astId": 2773,
            "contract": "contracts/LionNFTERC721.sol:LionNFTERC721",
            "label": "_entries",
            "offset": 0,
            "slot": "0",
            "type": "t_array(t_struct(MapEntry)2770_storage)dyn_storage"
          },
          {
            "astId": 2777,
            "contract": "contracts/LionNFTERC721.sol:LionNFTERC721",
            "label": "_indexes",
            "offset": 0,
            "slot": "1",
            "type": "t_mapping(t_bytes32,t_uint256)"
          }
        ],
        "numberOfBytes": "64"
      },
      "t_struct(MapEntry)2770_storage": {
        "encoding": "inplace",
        "label": "struct EnumerableMap.MapEntry",
        "members": [
          {
            "astId": 2767,
            "contract": "contracts/LionNFTERC721.sol:LionNFTERC721",
            "label": "_key",
            "offset": 0,
            "slot": "0",
            "type": "t_bytes32"
          },
          {
            "astId": 2769,
            "contract": "contracts/LionNFTERC721.sol:LionNFTERC721",
            "label": "_value",
            "offset": 0,
            "slot": "1",
            "type": "t_bytes32"
          }
        ],
        "numberOfBytes": "64"
      },
      "t_struct(Role)7386_storage": {
        "encoding": "inplace",
        "label": "struct Roles.Role",
        "members": [
          {
            "astId": 7385,
            "contract": "contracts/LionNFTERC721.sol:LionNFTERC721",
            "label": "bearer",
            "offset": 0,
            "slot": "0",
            "type": "t_mapping(t_address,t_bool)"
          }
        ],
        "numberOfBytes": "32"
      },
      "t_struct(Set)3333_storage": {
        "encoding": "inplace",
        "label": "struct EnumerableSet.Set",
        "members": [
          {
            "astId": 3328,
            "contract": "contracts/LionNFTERC721.sol:LionNFTERC721",
            "label": "_values",
            "offset": 0,
            "slot": "0",
            "type": "t_array(t_bytes32)dyn_storage"
          },
          {
            "astId": 3332,
            "contract": "contracts/LionNFTERC721.sol:LionNFTERC721",
            "label": "_indexes",
            "offset": 0,
            "slot": "1",
            "type": "t_mapping(t_bytes32,t_uint256)"
          }
        ],
        "numberOfBytes": "64"
      },
      "t_struct(UintSet)3719_storage": {
        "encoding": "inplace",
        "label": "struct EnumerableSet.UintSet",
        "members": [
          {
            "astId": 3718,
            "contract": "contracts/LionNFTERC721.sol:LionNFTERC721",
            "label": "_inner",
            "offset": 0,
            "slot": "0",
            "type": "t_struct(Set)3333_storage"
          }
        ],
        "numberOfBytes": "64"
      },
      "t_struct(UintToAddressMap)3096_storage": {
        "encoding": "inplace",
        "label": "struct EnumerableMap.UintToAddressMap",
        "members": [
          {
            "astId": 3095,
            "contract": "contracts/LionNFTERC721.sol:LionNFTERC721",
            "label": "_inner",
            "offset": 0,
            "slot": "0",
            "type": "t_struct(Map)2778_storage"
          }
        ],
        "numberOfBytes": "64"
      },
      "t_uint256": {
        "encoding": "inplace",
        "label": "uint256",
        "numberOfBytes": "32"
      }
    }
  }
}